:04000000E9EF3EF0F6
:107D8D000A0B0C0D0E016E01C0A9FFA69EA69CA6A6
:107D9D0080A85012004CEC3FF08AEC3FF0D5EF3E3E
:107DAD00F000EF00F0086E04C006F00550076E07F6
:107DBD00C001F0085069EC3FF006C001F0082869D9
:107DCD00EC3FF012008D0EF66E7D0EF76E000EF884
:107DDD006E00EE1AF010EE05F00900F5CFEEFFE59E
:107DED0050E150FAE10001D1EF3EF00A6E0A50C9A0
:107DFD00EC3EF0086E0A28C9EC3EF0096E095008F9
:107E0D00C004F0056A04C005F0046A0410066E058E
:107E1D0050076E06C002F007C003F01200056E0099
:107E2D000E066E26EF3FF006500224D96E000E03AB
:107E3D0020DA6E05500624C9EC3EF0DF6E062A04EA
:107E4D0050065CD8A02DEF3FF02FEF3FF01AEF3F1B
:107E5D00F01200076E000E086E42EF3FF00850045E
:107E6D0024D96E000E0520DA6EDF50016E07500822
:107E7D002469EC3FF0082A0650085CD8A049EF3F72
:107E8D00F04BEF3FF035EF3FF01200000E0F0138D1
:107E9D006F000E396F000E3A6F700ED3129B8C006F
:107EAD000E926E000E936E000E946E000E896E0093
:107EBD000E8A6E000E8B6E000E806E000E816E00AF
:107ECD000E826E1200026E000EF2BE010E036E02E5
:107EDD00C0A9FF01C0A8FFA69EA69CA684F29E5530
:107EED000EA76EAA0EA76EA682A1A880EF3FF08204
:107EFD00EF3FF07BEF3FF0A198A69403B002D0F2D4
:107F0D009E01D0F28E120020EE1AF010EE0DF0044C
:107F1D000EDBCFE3FFE806FCE2000EC9EC3EF019E4
:107F2D006E1928D8A49DEF3FF09FEF3FF0A6EF3FCD
:107F3D00F0AA0E016E000E69EC3FF0ABEF3FF0FFC3
:107F4D000E016E000E69EC3FF0050E0C6E0F0E0B60
:107F5D006EF10EE82EFED70B2EFCD70C2EFAD700A5
:107F6D00F02A0E056E3B0E046E100ED9EC3EF0108D
:107F7D000EFCEC3EF002C017F003C018F017C00461
:107F8D00F018C005F0160ED9EC3EF0050E0C6E0F74
:107F9D000E0B6EF10EE82EFED70B2EFCD70C2EFA23
:107FAD00D700F00D0E046E000E056E050E066E2048
:107FBD000E30EC3FF0120E026E000E036E050E0435
:107FCD006E200E15EC3FF0120E046E000E056E05C0
:107FDD000E066E260E30EC3FF0050E0C6E0F0E0BDE
:107FED006EF10EE82EFED70B2EFCD70C2EFAD70015
:037FFD00F012007F
:020000040020DA
:08000000FFFFFFFFFFFFFFFF00
:020000040030CA
:0E000000FF28193CFFB581FF0FC00FE00F4035
:00000001FF
